:020000040000FA
:0400000002726732EF
:01000B0032C2
:0100130032BA
:01001B0032B2
:0100230032AA
:03002B00022C3C68
:03003300022DD0CB
:01003B003292
:030043000271C285
:03004B00022D7D06
:01005300327A
:01005B003272
:01006300326A
:01006B003262
:01007300325A
:20007B0002087C0202EBC082C083E5812404F5817C007D00C374C89C74808DF063F08095FA
:20009B00F0500B7490C39CFA74019DFB80048C028D03E58124FBF886078F82C007C005C087
:2000BB0004C003C002781079887A02120956D002D003D004D005D007E58124FDF8E4F608A0
:2000DB00F6E58124FDF8C3E69A08E664808BF063F08095F0501DE58124FDF8A98119E6F79C
:2000FB000809E6F7E58124FDF8740126F6E40836F680CE8F82C005C004C003C0027826794B
:20011B00887A02120956D002D003D004D005E58124FDF8E4F608F674C8C39AFEE49BFFE5B0
:20013B008124FDF8C3E69E08E664808FF063F08095F0501DE58124FDF8A98119E6F70809FD
:20015B00E6F7E58124FDF8740126F6E40836F680CE0CBC00010DC3EC9490ED648094815052
:20017B000302008FE58124FAF58122E5812408F5817E0C7F78E58124F9FD7C07EC2DF98E88
:20019B00828F83E0FBA3AE82AF83A7031CEC30E7EB74072DF987077E0074062DF987048CB8
:2001BB0003E44207EB42068D047B007A40C007C006C0057408C0E0E4C0E0C004C003C002C0
:2001DB00900C9475F000788B79787A00120956E58124FBF581907D18E493FAA3E493FBA347
:2001FB00E493FCC004C003C00274CDC0E074ABC0E0C002C003C004900002D002D001D0003A
:20021B0012095615811581D002D003D004D005D006D007907D18E493FAA3E493FBA3E49366
:20023B00FCC005C004C003C002C007C006C002C003C004900003D002D001D0001209561537
:20025B00811581D002D003D004D005907D18E493FCA3E493FEA3E493FFC007C006C005C043
:20027B0004741AC0E0E4C0E0C004C006C007900001D002D001D00012095615811581D004E7
:20029B00D005D006D007907D1EE493FCA3E493FEA3E493FF7B007A40C007C006C0047408F0
:2002BB00C0E0E4C0E0C005C003C002C004C006C007900009D002D001D000120956E581245D
:2002DB00FBF581D004D006D007E58124F8F58122786F792B7A00120956789679F07A02127C
:2002FB000956788179887A0212095678B679877A02120956758203782679887A02120956FC
:20031B00900002120081789279977A02120956787779D27A02120956783979B77A021209F7
:20033B0056900000E4F5F0780579D47A02120956900001120081907B1275F0807894799AF7
:20035B007A01120956907B2D75F0807894799A7A0112095690624AE0FFBF8D028042BF95EF
:20037B0002802CBFA5028005BFB5448011907B4375F0807894799A7A011209568031907B86
:20039B004A75F0807894799A7A011209568020907B5175F0807894799A7A01120956800F8D
:2003BB00907B5875F0807894799A7A01120956907B5F75F0807894799A7A01120956906283
:2003DB0077E0FF0F8F8278C7799A7A01120956907B6775F0807894799A7A01120956785420
:2003FB0079887A02120956900000780F79D27A02120956E4C0E0C0E0C0E0900E3D75F000A1
:20041B00786679917A0212095615811581158178BC79EA7A021209567829798F7A02120966
:20043B0056120186E4C0E0C0E0C0E0900E4775F000786679917A021209561581158115810D
:20045B00907C97E493FDA3E493FEA3E493FFC007C006C0057401C0E0E4C0E0C005C006C003
:20047B0007900081D002D001D00012095615811581D005D006D007907CA3E493FDA3E4937A
:20049B00FEA3E493FFC007C006C0057401C0E0E4C0E0C005C006C007900081D002D001D069
:2004BB000012095615811581D005D006D007907C87E493FDA3E493FEA3E493FFC007C0063D
:2004DB00C0057401C0E0E4C0E0C005C006C007900081D002D001D00012095615811581D060
:2004FB0005D006D0077408C0E0E4C0E07494C0E0740CC0E0E4C0E090004775F000788B798B
:20051B00787A00120956E58124FBF581788D799F7A02120956E4C0E0C0E0C0E0900F107570
:20053B00F000786679917A02120956158115811581E4C0E0C0E0C0E0900E7875F0007866FC
:20055B0079917A0212095615811581158178D3798F7A02120956907C7275F080787D799E18
:20057B007A02120956785A79887A02120956900004120081786079887A02120956900A82AA
:20059B00E0E0605778D579887A01120956E5828583F045F06040780E79897A01120956AE39
:2005BB0082AF83C007C006784A792B7A00120956AC82AD83D006D007EEC39CFEEF9DFF1E8F
:2005DB00BEFF011FC374FF9E747F9F500978EF79857A01120956900A82E4F07827799A7AF7
:2005FB0002120956AE82AF83EE7089907D0CE493FDA3E493FEA3E493FFC007C005C006C054
:20061B0007D002D001D000120956AD82AE83D007900004EDF0EEA3F0ED4E700302058F78EF
:20063B00BC79A67A02120956907D03E493FDA3E493FEA3E493FFC007C006C005780079AB34
:20065B007A02120956AA82AB83ACF0D005D006D007C0057480C0E0E4C0E0C005C006C007EB
:20067B008A828B838CF0D002D001D000120956AF82AE8315811581D005900004EFF0EEA37E
:20069B00F0EF4E700302058F8F828E8378F279AA7A02120956907DC5E493FDA3E493FEA36C
:2006BB00E493FFC007C006C005C005C006C007D002D001D000120956D005D006D007020598
:2006DB008F20921B90003A75F00078A179907A02120956AE82AF83EE4F60047F0080027FE2
:0506FB0001EF3395E062
:20070000FE8F828E83020968AE82AF83BE8105BF00028006BE8210BF000D7404558DFF7E66
:20072000008F828E838003900000020968AE82AF83BE8005BF00028008BE816ABF006780D4
:200740001AAF8C74FD5FF58CAFF474FB5FF5F4AFFE74FB5FF5FE900001804EE58124FCF84E
:20076000E60846602EE58D20E237E4C0E0C0E090003A75F00078E2798F7A021209561581D4
:200780001581AF8A74FB5FF58AC2EB438D04439A10800EAF8D74FB5FF58DAF9A74EF5FF5B5
:2007A0009A900001800390000002096820931B90003A75F00078A179907A02120956AE824C
:2007C000AF83EE4F60047F0080027F01EF3395E0FE8F828E83020968AE82AF83BE8105BF36
:2007E00000028006BE8210BF000D7408558DFF7E008F828E838003900000020968AE82AFF3
:2008000083BE8005BF00028008BE816ABF0067801AAF8C74FD5FF58CAFF474F75FF5F4AFCF
:20082000FE74F75FF5FE900001804EE58124FCF8E60846602EE58D20E337E4C0E0C0E090FE
:20084000003A75F00078E2798F7A0212095615811581AF8A74F75FF58AC2EB438D08439A9A
:2008600010800EAF8D74F75FF58DAF9A74EF5FF59A9000018003900000020968C0E0C0F051
:20088000C082C083C007C006C005C004C003C002C001C000C0D075D000C2AFE58A30E241AF
:2008A00090003A75F00078A179907A02120956E5828583F045F060297410C0E0E4C0E090A5
:2008C000003A75F00078E2798F7A0212095615811581907C9175F080782B798B7A0212093E
:2008E00056E58A30E34190003A75F00078A179907A02120956E5828583F045F06029741000
:20090000C0E0E4C0E090003A75F00078E2798F7A0212095615811581907C9D75F080782BD8
:20092000798B7A02120956AF8A74FB5FF58AC2EBAF8A74F75FF58AC2EBD2AFD0D0D000D0A3
:2009400001D002D003D004D005D006D007D083D082D0F0D0E032C09FC8C0E0E9C0E0EA54C6
:200960000F539FF0429FC822D09F2278C679D67A02120956783479A87A011209567451C072
:20098000E0E4C0E0C0E09002D075F000781F79787A0012095615811581158174BBC0E0E4A4
:2009A000C0E0C0E090021575F000781F79787A00120956158115811581900321741CF090F2
:2009C00003227412F0900215E4F07405A3F0E4A3F0A3F09002197440F090021A74C0F07458
:2009E00027A3F07409A3F0E4A3F07898791C7A00120956AC82AD83AEF0FF90021EECF0EDB2
:200A0000A3F0EEA3F0EFA3F09002227410F07427A3F0E4A3F0A3F0900226F090032374FE10
:200A2000F07480A3F0900325E4F0A3F0900327F0A3F0900329F0A3F0C0E0C0E0C0E0C0E024
:200A40007440C0E090032375F000784D790E7A00120956E58124FBF5817447C0E07400C066
:200A6000E0E4C0E090032375F00078EB791A7A001209561581158115817401C0E0E4C0E0BB
:200A8000C0E0C0E0C0E090032375F00078F679107A00120956E58124FBF58190032374FF55
:200AA000F07402A3F0900325E4F0A3F0900327F0A3F0900329F0A3F090032BF0A3F09003CE
:200AC0002DF0A3F090032FF0A3F0900331F004A3F090032375F00078D779157A00120956F3
:200AE00078F779D17A02120956E5828583F0547FFE7F00C006C00790020A75F000785979C9
:200B0000877A0112095615811581740CC0E0E4C0E090020075F000785979877A01120956DE
:200B2000158115810209689003337427F07402A3F0E4A3F0900333E0FDA3E0FEA3E0FF742B
:200B40007BC0E07402C0E0E4C0E08D828E838FF012719415811581158150678D828E838F02
:200B6000F012793A604D74132DFAE43EFB8F048A828B838CF012793A703974142DFDE43EDD
:200B8000FE8D828E838FF078E979C97A02120956E5828583F045F0601A900333E0FDA3E0F4
:200BA000FEA3E0FF8D828E838FF0780E79137A00120956900333E0241CF0A3E03400F0029A
:200BC0000B3478A379B97A0112095690033C74D0F07402A3F0E4A3F090033CE0FDA3E0FEED
:200BE000A3E0FF7421C0E07403C0E0E4C0E08D828E838FF012719415811581158150678DE7
:200C0000828E838FF012793A604D741A2DFAE43EFB8F048A828B838CF012793A7039741261
:200C20002DFDE43EFE8D828E838FF078E979C97A02120956E5828583F045F0601A90033C5E
:200C4000E0FDA3E0FEA3E0FF8D828E838FF07898790F7A0012095690033CE0241BF0A3E031
:200C60003400F0020BD8787079DB7A0212095690020075F000789C79877A01120956020940
:200C800068C082C083C0F0E5812406F58124EBF886020886030886048A828B838CF0E41273
:200CA00072D3A31272D3A31272D3E58124F8F8A9811919E6F70809E6F70809E6F7E58124E2
:200CC000EEF8E58124FBF9E6C423541FF7C002C003C004E58124F5F886020886030886040E
:200CE000E58124F1F886067F00C004C003C002E58124ECF8E6C0E008E6C0E08E828F831277
:200D00007472AE82AF8315811581D002D003D004EE2AFAEF3BFBE58124FBF8C002C003C0ED
:200D20000486820886830886F0127194158115811581D004D003D0024003020E24A881180E
:200D40001886820886830886F012793A7003020DE3C002C003C004E58124F8F8E58124F974
:200D6000F9E6F7097700E58124ECF88603088604088605E58124FBF8740126FAE40836FECF
:200D8000088607C004C003C002E58124F6F8E6C0E008E6C0E0C003C004C0058A828E838FF1
:200DA000F0781079757A00120956AE82AF83E58124FBF581D002D003D004D004D003D00293
:200DC000EE4F70398A828B838CF0A8811818E61272D3A308E61272D3A308E61272D375823A
:200DE0000080618A828B838CF0A8811818E61272D3A308E61272D3A308E61272D3A88118D5
:200E0000188605088606088607E58124F2F8E62DFD08E63EFEA8811818A60508A60608A6F2
:200E200007020CCD8A828B838CF012793AFAA312793AFBA312793AFCEA4B60047F01800219
:200E40007F028F82E58124F7F581020968AD82AE83AFF0C007C006C005743CC0E07403C0BE
:200E6000E0E4C0E0E58124F7F8E6C0E0C005C006C007741BC0E0E4C0E07403C0E09002D091
:200E800075F0007881790C7A00120956AC82E58124F6F581D005D006D007BC01028003029A
:200EA0000F8F90033CE0FAA3E0FBA3E0FC8A828B838CF074011272D390033CE0FAA3E0FB65
:200EC000A3E0FC0ABA00010B7410C0E0E4C0E0C005C006C0078A828B838CF0788B79787AC5
:200EE00000120956E58124FBF58190033CE0FDA3E0FEA3E0FF74112DFDE43EFE8D828E83E8
:200F00008FF0E58124FDF8E61272D3E58124F9F8E6084608460846605990033CE0FDA3E063
:200F2000FEA3E0FF74122DFDE43EFEE58124F9F8E6C0E008E6C0E008E6C0E008E6C0E08D29
:200F4000828E838FF078A079C87A02120956E58124FCF58190033CE0FDA3E0FEA3E0FF741A
:200F60001A2DFDE43EFE8D828E838FF0E41272D3801D90033CE0FDA3E0FEA3E0FF741A2D2C
:200F8000FDE43EFE8D828E838FF074011272D390000075F000020968AD82AE83AFF0ED4E27
:200FA000600A8D828E838FF0E41272D3020968AD82AE83AFF0743CC0E07403C0E0E4C0E090
:200FC000E58124FAF8E6C0E0C005C006C007741BC0E0E4C0E07403C0E09002D075F00078B4
:200FE00081790C7A00120956AF82E58124F6F581EF701390033CE0FDA3E0FEA3E0FF8D82A9
:201000008E838FF0800690000075F000020968C082C083C0F0E5812406F58190033C74D004
:20102000F07402A3F0E4A3F090033CE0FFA3E0FDA3E0FC7421C0E07403C0E0E4C0E08F82B2
:201040008D838CF012719415811581158140030210EA8F828D838CF012793A70030210DB2A
:2010600074112FFEE43DFB8C028E828B838AF012793AC423541FFEE58124FBF8A6060876B8
:2010800000E58124F8F8A9811919E6F70809E6F70809E6F774012FFAE43DFB8C06E58124EB
:2010A000FBF8E6C0E008E6C0E0E58124FCF8E6C0E008E6C0E008E6C0E08A828B838EF078F9
:2010C0001079757A00120956AD82AE83E58124FBF581ED4E7005758201801290033CE024BF
:2010E0001BF0A3E03400F0021028758200E58124F7F581020968AD82AE83AFF0C007C00617
:20110000C0057433C0E07403C0E0E4C0E07480C0E0C005C006C007741CC0E0E4C0E0740317
:20112000C0E090022775F0007881790C7A00120956AC82E58124F6F581D005D006D007BC26
:2011400001028003021305900333E0FAA3E0FBA3E0FC8A828B838CF074011272D38D028ED3
:20116000038F04C005C006C007900333E0FDA3E0FEA3E0FF0DBD00010EC007C006C0057442
:2011800010C0E0E4C0E0C002C003C0048D828E838FF0788B79787A00120956E58124FBF5DA
:2011A00081D005D006D007900333E0FDA3E0FEA3E0FF74122DFDE43EFE8D828E838FF0E532
:2011C0008124F6F8E61272D3D007D006D005E58124FAF8E6084608460846701F900333E03C
:2011E000FAA3E0FBA3E0FC74132AFAE43BFB8A828B838CF074011272D38063900333E0FA4E
:20120000A3E0FBA3E0FC74132AFAE43BFB8A828B838CF0E41272D3900333E0FAA3E0FBA37A
:20122000E0FC74142AFAE43BFBC007C006C005E58124F7F8E6C0E008E6C0E008E6C0E00897
:20124000E6C0E08A828B838CF078A079C87A02120956E58124FCF581D005D006D00790031B
:2012600033E0FAA3E0FBA3E0FC74112AFAE43BFB8A828B838CF074011272D390032374FF16
:20128000F09003247402F0900325E4F0A3F0900327F0A3F0900329F0A3F090032BF0A3F065
:2012A00090032DF090032E04F090032F74FFF0740D2DFAE43EFB8F048A828B838CF012792B
:2012C0003A900330F0740E2DFDE43EFE8D828E838FF012793AFDA312793AFE900331EDF0ED
:2012E000EEA3F090032375F00078D779157A00120956900333E0FDA3E0FEA3E0FF8D828E47
:20130000838FF0800690000075F000020968AD82AE83AFF0ED4E70030213E890032374FF0A
:20132000F09003247402F0900325E4F0A3F0900327F0A3F0900329F0A3F090032BF0A3F0C4
:2013400090032DF090032E04F090032F74FFF074012DFAE43EFB8F04740D2AFAE43BFB8A6E
:20136000828B838CF012793A900330F074012DFAE43EFB8F04740E2AFAE43BFB8A828B83C3
:201380008CF012793AFAA312793AFB900331EAF0EBA3F090032375F000C007C006C00578AE
:2013A000A479167A00120956AA82AB83ACF0D005D006D007900336EAF0EBA3F0ECA3F0EA0D
:2013C0004B601B8A828B838CF0C007C006C005788D79167A00120956D005D006D0078D824F
:2013E0008E838FF0E41272D3020968AD82AE83AFF07433C0E07403C0E0E4C0E07480C0E03A
:20140000C005C006C007741CC0E0E4C0E07403C0E090022775F0007881790C7A0012095628
:20142000AF82E58124F6F581EF7013900333E0FDA3E0FEA3E0FF8D828E838FF080069000B8
:201440000075F000020968AF829003337427F07402A3F0E4A3F0BFFF03048001E4FE9003F7
:2014600033E0FBA3E0FCA3E0FD747BC0E07402C0E0E4C0E08B828C838DF0127194158115DB
:2014800081158140030215058B828C838DF012793A6063EE702174112BFBE43CFC8B828CD6
:2014A000838DF012793AFB7D00EFFA3395E0FCEBB50243EDB5043F900333E0FBA3E0FCA3D5
:2014C000E0FD74012BF8E43CF98D02888289838AF012793AF8B8FE1E74022BF8E43CF98D8F
:2014E00002888289838AF012793AF8B880088B828C838DF08015900333E0241CF0A3E034A2
:2015000000F002145E90000075F000020968AF829003337427F07402A3F0E4A3F0BFFF033C
:20152000048001E4FE900333E0FBA3E0FCA3E0FD747BC0E07402C0E0E4C0E08B828C838DD2
:20154000F012719415811581158140030215CE8B828C838DF012793A6065EE702174112B48
:20156000FBE43CFC8B828C838DF012793AFB7D00EFFA3395E0FCEBB50245EDB50441900390
:2015800033E0FBA3E0FCA3E0FD74012BF8E43CF98D02888289838AF012793AF8B8FE18746F
:2015A000022BF8E43CF98D02888289838AF012793AF8B8800280088B828C838DF080159091
:2015C0000333E0241CF0A3E03400F002152590000075F000020968AD82AE83AFF08D028E5E
:2015E000038F04C007C006C0057436C0E07403C0E0E4C0E07480C0E0C002C003C0047411BC
:20160000C0E0E4C0E07404C0E090028C75F0007881790C7A00120956AC82E58124F6F5817E
:20162000D005D006D007BC015B900336E0FAA3E0FBA3E0FC8A828B838CF074011272D3907E
:201640000336E0FAA3E0FBA3E0FC0ABA00010B7410C0E0E4C0E0C005C006C0078A828B8396
:201660008CF0788B79787A00120956E58124FBF581900336E0FDA3E0FEA3E0FF8D828E834B
:201680008FF0800690000075F000020968AD82AE83AFF0ED4E600A8D828E838FF0E4127232
:2016A000D3020968AD82AE83AFF07436C0E07403C0E0E4C0E07480C0E0C005C006C00774A6
:2016C00011C0E0E4C0E07404C0E090028C75F0007881790C7A00120956AF82E58124F6F52B
:2016E00081EF7013900336E0FDA3E0FEA3E0FF8D828E838FF0800690000075F000020968C1
:20170000AD82AE83AFF0C007C006C0057439C0E07403C0E0E4C0E07480C0E0C005C006C0B1
:20172000077411C0E0E4C0E004C0E090027B75F0007881790C7A00120956AC82E58124F6CC
:20174000F581D005D006D007BC015B900339E0FAA3E0FBA3E0FC8A828B838CF07401127247
:20176000D3900339E0FAA3E0FBA3E0FC0ABA00010B7410C0E0E4C0E0C005C006C0078A821D
:201780008B838CF0788B79787A00120956E58124FBF581900339E0FDA3E0FEA3E0FF8D822A
:2017A0008E838FF0800690000075F000020968AD82AE83AFF0ED4E600A8D828E838FF0E484
:2017C0001272D3020968AD82AE83AFF07439C0E07403C0E0E4C0E07480C0E0C005C006C079
:2017E000077411C0E0E4C0E004C0E090027B75F0007881790C7A00120956AF82E58124F609
:20180000F581EF7013900339E0FDA3E0FEA3E0FF8D828E838FF0800690000075F00002090F
:2018200068C082C083C0F0E5812404F581A881E4F6FAFBFCE58124F4F8E58124FDF9E6F740
:201840000809E6F70809E6F7E58124FDF886820886830886F012793AFFBFFE20E58124FD6E
:20186000F8740126FDE40836FE0886078D828E838FF012793AFDBD80030219A6E58124FD3A
:20188000F886820886830886F012793AFFBFFF030219A69003337427F07402A3F0E4A3F0A2
:2018A000900333E0FDA3E0FEA3E0FF747BC0E07402C0E0E4C0E08D828E838FF0127194158E
:2018C000811581158140030219BE8D828E838FF012793A7003021997C002C003C0047411E8
:2018E0002DFAE43EFB8F048A828B838CF012793AFABA01028009D004D003D00202199774D7
:20190000012DFAE43EFB8F048A828B838CF012793AFABAFE028008D004D003D002801CD073
:2019200004D003D00274022DFDE43EFE8D828E838FF012793AFDBD8002805C900333E0FD1F
:20194000A3E0FEA3E0FF0DBD00010EC004C003C002C005C006C007E58124F7F88682088601
:20196000830886F0786F791B7A00120956AF82158115811581D002D003D004A881C3EF9623
:201980004015A881A607900333E0FDA3E0FEA3E0FF8D028E038F04900333E0241CF0A3E06A
:2019A0003400F00218A0758201784779147A00120956AD82AE83AFF08D028E038F04EA4B33
:2019C0006003021AAEE58124FAF886820886830886F0E41272D3A31272D3E58124FAF874A2
:2019E0000226FDE40836FE0886078D828E838FF0E41272D3A31272D3E58124FAF87404261F
:201A0000FDE40836FE0886078D828E838FF0E41272D3A31272D3E58124FAF8740626FDE443
:201A20000836FE0886078D828E838FF0E41272D3A31272D3E58124FAF8740826FDE40836C4
:201A4000FE0886078D828E838FF0E41272D3A31272D3E58124FAF8740A26FDE40836FE08DA
:201A600086078D828E838FF0E41272D3A31272D3E58124FAF8740C26FDE40836FE08860731
:201A80008D828E838FF0E41272D3A31272D3E58124FAF8740E26FDE40836FE0886078D828D
:201AA0008E838FF0E41272D3A31272D380340ABA00010BE58124FAF88605088606088607AD
:201AC0007410C0E0E4C0E0C002C003C0048D828E838FF0788B79787A00120956E58124FB12
:201AE000F581E58124F9F581020968058105810581AD82AE83AFF0E58124F8F8A98119199D
:201B0000E6F70809E6F70809E6F774082DFDE43EFE8D028E038F04C007C006C0057408C005
:201B2000E0E4C0E0E58124F9F8E6C0E008E6C0E008E6C0E08A828B838CF0788B79787A0020
:201B4000120956E58124FBF581D005D006D0078D828E838FF012793AFC6304028D828E83AE
:201B60008FF0EC1272D3158115811581020968E5812409F581A8811818A68208A68308A605
:201B8000F07C007B007A00C004E58124FDF8E58124F7F9EA26F7E4083609F70809E6F7E52B
:201BA0008124F1F88604088606088607E58124FAF8EA2CF6E43E08F608A607E58124F7F80E
:201BC00086820886830886F012793AFFE58124FAF886820886830886F012793AFEEFB5062A
:201BE000028004D0048009D00474082BFBFC8039E58124F8F886820886830886F012793A01
:201C0000FFE58124FBF886820886830886F012793A62078C067D00EF20E7170E8E04EF2FA9
:201C2000FF0DBD080040F080090ABA10005003021B878C82E58124F7F581020968788D7959
:201C4000B87A01120956AD82AE83AFF0ED4E7036900214E0FFBF0300502C78B5793D7A00E0
:201C6000120956900214E02401F0E4C0E07402C0E090020A75F000785979877A0112095600
:201C800015811581800F90020A75F000783579897A01120956020968E5812408F5819002E0
:201CA0001AE0FCA3E0FDA3E0FEA3E0FFE58124F9F8EFC313080808F6EE1318F6ED1318F640
:201CC000EC1318F678F779D17A02120956AB827A00C003C00278F779D17A02120956AF824E
:201CE000AE83D002D003EF2AFAEE3BFB90021AE0FCA3E0FDA3E0FEA3E0FFE58124FDF8EF5E
:201D0000C313080808F6EE1318F6ED1318F6EC1318F6E58124FDF8E62CFC08E63DFD08E612
:201D20003EFE08E63FFFE58124FDF8ECC396F6ED0896F6EE0896F6EF0896F68A048B05E4F9
:201D4000FEFFE58124FDF8E6C0E008E6C0E008E6C0E008E6C0E08C828D838EF0EF127605BF
:201D6000AC82AD83AEF0FFE58124FCF58124F9F8EC26FCED0836FDEE0836FEEF0836FF8C3F
:201D8000828D838EF0C8E58124F8F581C802096890618FE0FF7E00742C2FFFE43EFE7405F4
:201DA000C0E0E4C0E08F828E83127A46AE82AF83158115818E82020968AF82BF0B004005BA
:201DC000EF24E550057582FF8029C007784C79237A00120956D007EF24F575F005A4906127
:201DE0008F240BF0C007782E79237A00120956D0078F82020968906173E0FE7F00906172C2
:201E0000E0FD7C004207EC42068F828E83020968AE82AF838E047D00906172ECF090617343
:201E2000EFF0020968906175E0FE7F00906174E0FD7C004207EC42068F828E83020968AE0F
:201E400082AF838E047D00906174ECF0906175EFF002096890618BE0E0701290033FE0FF57
:201E600074104FF0782E79237A00120956906199E0FF30E0F8906198E024B7FF90033FE00C
:201E8000FE74105EFDBD101490033F74EF5EF0C007784C79237A00120956D007EF3395E081
:201EA000FE8F828E83020968906196E0FF3395E0FEEF24B7FFEE34FFFE8F828E8302096806
:201EC000AE82AF8390619674492EF002096805810581906190E0FF906191E0FEBE09109098
:201EE0007CF4E493FDA3E493FE8D828E8380667D007E007B007C00A88118EB24C4F6EC34C4
:201F00007C08F6A881188682088683A3A3E493FAC3EF9A401BA881188682088683E49318A6
:201F2000F6A3E49308F6A881188682088683802574032BFBE43CFC0DBD00010EC3ED9411AD
:201F4000EE6480948040B0907CF4E493FEA3E493FF8E828F8315811581020968AE82AF83FA
:201F6000907CF4E493FCA3E493FDC3EC9EED64808FF063F08095F040129061917409F09011
:201F80007CF6E493FD906190F080567C0F7D007A2D7B00EA24C4F582EB347CF583E493F81F
:201FA000A3E493F9C3E89EE964808FF063F08095F0401D9061917469F0EA24C4F8EB347C10
:201FC000F988828983A3A3E493F9906190F08011EA24FDFAEB34FFFB1CBCFF011DED30E723
:201FE000B2020968E582FF600B906180E0FF74014FF08009906180E0FF74FE5FF0020968DA
:20200000E582FF600B906189E0FF74204FF08009906189E0FF74DF5FF002096890033FE01A
:20202000FF30E005900000804A9061AB743FF09061AC7455F090619674F8F09061FA740952
:20204000F09061B27415F09061AEE4F09061897440F0E0FE74204EF0906182E4F090619467
:20206000747FF090619074D5F090033F74014FF0900001020968C082C083C0F0906193E0A0
:20208000FC20E1F890033FE0FC20E709782E79237A0012095675E1EE75E1EEE58124F9F85D
:2020A000860474022CF5D97C008C027B00E58124F9F8C3EA96EB08965020A8811818860209
:2020C000088603088607EC2AFAE43BFB8A828B838FF012793AF5D90C80CF75D90075D9008D
:2020E00090000015811581158102096890033FE0FF20E748AEE27F00ACE38C05E42EFEEDEF
:202100003FFFC007C006782E79237A00120956D006D00790033FE0FD74104DF074052EFE05
:20212000E43FFFACE27D00AAE38A03E4FA2CFCEB3DFDECC39EFCED9FFD20E7E77800792359
:202140007A00120956E5828583F045F070059000028071906193E0FF30E505900002806415
:2021600075E1E97F00906193E0FE20E11A8F060FBE03005012900006C00778E8792A7A0083
:20218000120956D00780DE906193E0FF20E10C75E1EE75E1EE7E017F00800C906193E0FDB6
:2021A00020E1F87E007F0090033FE0FD30E411C007C006784C79237A00120956D006D007D0
:2021C0008E828F83020968AD82AE83AFF0E58124FCF8E6C0E008E6C0E08D828E838FF078C2
:2021E0007679207A0012095615811581E58124FCF8868208868378EC79207A00120956AE8C
:2022000082AF83020968C082C083C0F0E5D9FC2480500C75E1ED75E1ED9000000222F7EC8B
:2022200024FB400C75E1ED75E1ED9000000222F78C027B00EA24FEFAEB34FFFBE58124F957
:20224000F8C3E69A08E69B500C75E1ED75E1ED9000000222F71C1C7B00C3EB9C5025C004F7
:20226000E58124FDF88602088604088607EB2AFAE43CFC8A828C838FF0E5D91272D30BD07B
:202280000480D6E5D924B7FFE5D9FE30E740EF3395E0FDC006C004C007C005758204786FAD
:2022A00079AD7A0212095615811581D004D00653067F7F00C004C006C007758203786F7933
:2022C000AD7A0212095615811581D004800B75E1ED75E1ED900000801E906193E0FF530768
:2022E000C0BF400D90619BE0E0700675E1ED75E1ED7F008C828F83158115811581020968F6
:20230000906193E0FF30E4059000018003900000020968906193E09000000209689061933F
:20232000E0FF5307407E008F828E8302096890033FE0FF20E71075E1ED75E1ED75E1E390FA
:20234000033F74804FF090000102096875E1EF75E1ED75E1ED90033FE0FF747F5FF09000B6
:2023600001020968AE82AF83E58124FBF8E608467006758202022653C3740D9EE49F500334
:20238000022650EE240A83F582EE241283F583E473ADE01B569150043F7A50B5D8FA25237E
:2023A00023242424262525252625252526E58124FBF8860508860608860790618BE0E07061
:2023C00003FC80027C01EC3395E0FB8D828E838FF0EC1272D3A3EB1272D375820002265337
:2023E000E58124FBF88605088606088607C007C006C0057890791D7A00120956AC82D005CE
:20240000D006D0077B008D828E838FF0EC1272D3A3EB1272D3758200022653E58124FBF8DE
:202420008605088606088607C007C006C00578F6791D7A00120956AB82AC83D005D006D0D0
:20244000078D828E838FF0EB1272D3A3EC1272D3758200022653E58124FBF88605088606A0
:20246000088607C007C006C0057825791E7A00120956AB82AC83D005D006D0078D828E8358
:202480008FF0EB1272D3A3EC1272D3758200022653E58124FBF886050886060886078D82E3
:2024A0008E838FF0E41272D3A31272D3906180E0FC30E0218D828E838FF012793AFBA312C5
:2024C000793AFC4303018D828E838FF0EB1272D3A3EC1272D3906189E0FC30E5218D828E16
:2024E000838FF012793AFBA312793AFC4303028D828E838FF0EB1272D3A3EC1272D37582B0
:2025000000022653E58124FBF88605088606088607C007C006C00578CE791E7A00120956F5
:20252000AB82AC83D005D006D0078D828E838FF0EB1272D3A3EC1272D3758200022653E59F
:202540008124FBF88605088606088607C007C006C00578A8791E7A00120956AB82AC83D00F
:2025600005D006D0078D828E838FF0EB1272D3A3EC1272D3758200022653E58124FBF8866D
:2025800005088606088607C007C006C0057854791E7A00120956AB82AC83D005D006D0078F
:2025A0008D828E838FF0EB1272D3A3EC1272D3758200022653E58124FBF88605088606083E
:2025C00086078D828E838FF0740B1272D3A3E41272D3758200022653E58124FBF886050899
:2025E00086060886078D828E838FF0741A1272D3A3E41272D37582008059E58124FBF88685
:2026000005088606088607907CF4E493FBA3E493FC8D828E838FF0EB1272D3A3EC1272D33D
:20262000758200802EE58124FBF88605088606088607907CC4E493FBA3E493FC8D828E834C
:202640008FF0EB1272D3A3EC1272D37582008003758201020968AE82AF83C374079EE49F2D
:20266000500302281AEE240A83F582EE240C83F583E47383BD0C29461AA7022626272727FE
:20268000282728E58124FCF8B6011308B6000F782E79237A0012095675820002281DE581DD
:2026A00024FCF8E60846700F784C79237A0012095675820002281D75820202281DE58124FC
:2026C000FCF8C3E6940B08E6648094804015E58124FCF8C3741A9674800886F063F0809544
:2026E000F0500675820202281DE58124FCF886078F8278B9791D7A00120956AF82BFFF0691
:2027000075820302281D75820002281DE58124FCF886060886078E828F837810791E7A00E0
:2027200012095675820002281DE58124FCF886060886078E828F83783F791E7A00120956F0
:2027400075820002281DE58124FCF8E654FC700408E6600675820202281DE58124FCF8748D
:202760000156FE7F00E4BE0004BF000104FEB40100E433F58278E4791F7A00120956E58195
:2027800024FCF8740256FE7F00E4BE0004BF000104FEB40100E433F582780079207A001290
:2027A00009567582008076907CF4E493FEA3E493FFE58124FCF8C3E69E08E664808FF063C6
:2027C000F08095F0401F907CC4E493FEA3E493FFE58124FCF8C3EE96EF64800886F063F0DE
:2027E0008095F050057582028033E58124FCF88682088683785C791F7A00120956758200EE
:20280000801BE58124FCF8868208868378C0791E7A001209567582008003758201020968E7
:20282000E5812405F581AE82AF83BE0905BF000280030228BCE58124F4F8B6080E08B6003B
:202840000AE58124F6F8E608467005758202806FE58124F6F8E58124FCF9E6F70809E6F7A3
:202860000809E6F7A88118E4F608F6E58124FCF8A98119E726FA09E70836FE088607A8819F
:20288000187407C396FCE40896FDEC246AF582ED3461F583E0FD8A828E838FF01272D3A86E
:2028A000811806B600020806A88118C3E6940808E66480948040B47582008003758201E5FC
:2028C0008124FBF581020968E5812404F581AE82AF83BE0905BF00028003022963E58124E1
:2028E000F5F8B6080E08B6000AE58124F7F8E608467005758202806EA88118E4F608F6A88D
:202900008118E58124FDF9E6246AF708E6346109F7E58124F7F88602088603088607A88160
:20292000187407C396FDE40896FEED2AFAEE3BFB8A828B838FF012793AFAE58124FDF8869C
:2029400082088683EAF0A8811806B600020806A88118C3E6940808E66480948040A17582B9
:20296000008003758201E58124FCF581020968AF82BF02047F0280027F088F067F008E0447
:202980008F051EBEFF011FC3E49C74808DF063F08095F05023E58124FBF8EE26FBEF083670
:2029A000FC0886058B828C838DF012793AFBBBFF0280CB9000008003900001020968900081
:2029C0000002096890000002096878E179AB7A02120956AE82AF83C007C006780079AB7A12
:2029E00002120956AB82AC83ADF0D006D0077440C0E07403C0E0E4C0E0C006C0078B828CA9
:202A0000838DF0783779C17A01120956AE82AF83E58124FBF581EE4F7003022AE2900345EE
:202A2000E0FF606B900349E0FDA3E0FE907D21E493FB740193FCEDB50306EEB50402800E2C
:202A4000BDFF05BEFF028006900000022AE5744BC0E07403C0E0E4C0E08F82786F79297AC1
:202A600000120956AE82AF83158115811581EE4F701D744BC0E07403C0E0E4C0E0758219ED
:202A800078AD79AD7A021209561581158115817455C0E07403C0E0E4C0E075821878AD798B
:202AA000AD7A02120956158115811581900342E0FF7E00C007C006758212786F79AD7A0269
:202AC00012095615811581900348E0FF7E00C007C00675820D786F79AD7A02120956158100
:202AE0001581900000020968AE82AF83C2AF8E048F051EBEFF011FEC4D60030080F0D2AFBC
:202B0000020968AE82AF83C007C006784A792B7A00120956AC82AD83D006D007C007C0066A
:202B2000C005C004784A792B7A00120956AA82AB83D004D005D006D007EAC39CFAEB9DFB45
:202B4000C3EA9EEB9F40D5020968900ED0E0FEA3E0FF8E828F83020968900ED2E0FEA3E0E4
:202B6000FF7D007C008E828F838DF0EC02096875C6C0AFC674BF5FF5C6E59E20E6FB43C615
:202B800030E5C6B59EFB900000E595F0E4A3F0A3F0A3F0AC967D007E008E078D068C057C03
:202BA00000900000E0F8A3E0F9A3E0FAA3E0FB900000EC28F0ED39A3F0EE3AA3F0EF3BA361
:202BC000F0AC977D008D078C067D007C00900000E0F8A3E0F9A3E0FAA3E0FB900000EC28A3
:202BE000F0ED39A3F0EE3AA3F0EF3BA3F0900000E0FCA3E0FDA3E0FEA3E0FF900000ECF059
:202C000074012DA3F0E43EA3F0E43FA3F0900000E0A3E0A3E0FEA3E08E97900000E0A3E005
:202C2000FDA3E0A3E08D96900000E0FCA3E0FDA3E0FEA3E0FF8C95D2AD020968C0E0C0828A
:202C4000C083C007C006C005C004C003C002C001C000C0D075D000C2AF900000E595F0E4F1
:202C6000A3F0A3F0A3F0AC967D007E008E078D068C057C00900000E0F8A3E0F9A3E0FAA325
:202C8000E0FB900000EC28F0ED39A3F0EE3AA3F0EF3BA3F0AC977D008D078C067D007C00B5
:202CA000900000E0F8A3E0F9A3E0FAA3E0FB900000EC28F0ED39A3F0EE3AA3F0EF3BA3F070
:202CC000900000E0FCA3E0FDA3E0FEA3E0FF900000ECF074012DA3F0E43EA3F0E43FA3F0F9
:202CE000900000E0A3E0A3E0FEA3E08E97900000E0A3E0FDA3E0A3E08D96900000E0FCA390
:202D0000E0FDA3E0A3E08C95900ED0E02401F0A3E03400F0900ED0E0FEA3E0FFEE547F60B6
:202D200002800C900ED2E02401F0A3E03400F0900A827401F0C2C7D2AFD0D0D000D001D05D
:202D400002D003D004D005D006D007D083D082D0E03275E40975AF0075E644C2DED2B9026F
:202D60000968AE82AF83ADE674FB5DF5E68EDC8FDD43E60475AF0043E640020968C0E0C0E3
:202D8000F0C082C083C007C006C005C004C003C002C001C000C0D075D000C2B9AFAF74FD83
:202DA0005FF5AFAFE674BF5FF5E6784179897A02120956D2B9D0D0D000D001D002D003D025
:202DC00004D005D006D007D083D082D0F0D0E032C0E0C0F0C082C083C007C006C005C0043B
:202DE000C003C002C001C000C0D075D0000581A8817600900F70E0FCA3E0FDA3E0FEE4C043
:202E0000E0C0E0C0E08C828D838EF0127194158115811581605D74032CFAE43DFB8E078A88
:202E2000828B838FF012793AFAA312793AFBA312793AFFC007C006C005C004C003C002C09F
:202E400003C007D002D001D000120956AA82D003D004D005D006D007A881EA46F68C828D85
:202E6000838EF012793AFCA312793AFDA312793AFE808BA881E66002C2E81581D0D0D00099
:202E8000D001D002D003D004D005D006D007D083D082D0F0D0E032AD82AE83AFF0E5812496
:202EA000FDF8E61272D374012DFAE43EFB8F048A828B838CF074021272D32DFAE43EFB8F5E
:202EC00004C007C006C0057408C0E0E4C0E07447C0E07400C0E0E4C0E08A828B838CF078FB
:202EE0008B79787A00120956E58124FBF581D005D006D007740A2DFDE43EFE7406C0E0E428
:202F0000C0E0C0E08D828E838FF0781F79787A00120956158115811581020968058105811E
:202F20000581900059E0FFBFFF0280030234D8900E52E0FF242C2452FDE43400FE8D828EAD
:202F400083A3A3A3A3E0FEBEFF030234D874282F2452FEE43400FF0EBE00010F8E828F8362
:202F6000E060030234D8900C26E4F0A3F0A3F0900C257414F0900E52E0FFFD7E00742C2DF4
:202F8000FDE43EFE900C25E0FC7B002DFDEB3EFE9000E4E0FAA3E0FBC3ED9AEE9B400302C7
:202FA00031D7742C2F2C2452FDE43400FE0DBD00010E8D828E83E070030234D8742C2F2C30
:202FC0002452F582E43400F583E0FEBE010280030231B0742C2F2C2452FDE43400FE900C4F
:202FE00026EDF0EEA3F0E4A3F090005AE0FDA3E0FE4D705090005CE0FDA3E0FE4D704590A5
:20300000005EE0FDA3E0FE4D703A900060E0FDA3E0FE4D702F900062E0FDA3E0FE4D702492
:20302000900064E0FDA3E0FE4D7019900066E0FDA3E0FE4D700E900068E0FDA3E0FE4D7036
:20304000030234D890005A75F000788E79D97A02120956AC82AD83AEF0900C3FECF0EDA388
:20306000F0EEA3F0EC4D703C900C26E0FFA3E0FEA3E074022FFFE43EFE8F028E037F00747C
:2030800002C0E0E4C0E0C002C003C00790005A75F00078F579D67A02120956E58124FBF54C
:2030A000810231B08C828D838EF078A979D87A02120956AC82AD83AEF08C028D038E07A85A
:2030C000811818A60208A60308A607900C26E0FCA3E0FDA3E0FE74022CFCE43DFDC007C04F
:2030E00003C0027408C0E0E4C0E0E58124F9F8E6C0E008E6C0E008E6C0E08C828D838EF0B2
:20310000781079757A00120956AD82AE83E58124FBF581D002D003D007ED4E606B900C26AF
:20312000E0FCA3E0FDA3E0FE74022CFCE43DFDA8811818A60408A60508A6068F067408C0BB
:20314000E0E4C0E0E58124FCF8E6C0E008E6C0E008E6C0E08A828B838EF0788B79787A00E5
:20316000120956E58124FBF581900C3FE0FCA3E0FDA3E0FE74222CFCE43DFD8C828D838EA3
:20318000F074021272D38028900C3FE0FCA3E0FDA3E0FE74222CFCE43DFD8C828D838EF09A
:2031A00012793A700B8C828D838EF074021272D3900E52E0242CFE900C25E0FD2E2452FC0A
:2031C000E43400FE8C828E83A3E0C40354F8FE900C252DF0022F75742C2F2452FEE4340047
:2031E000FF74042EFEE43FFF7D008E828F838DF078EB79137A00120956AD82AE83AFF09085
:203200000C45EDF0EEA3F0EFA3F0ED4E70030234D890005AE0FEA3E0FF4E705090005CE09D
:20322000FEA3E0FF4E704590005EE0FEA3E0FF4E703A900060E0FEA3E0FF4E702F90006296
:20324000E0FEA3E0FF4E7024900064E0FEA3E0FF4E7019900066E0FEA3E0FF4E700E90004F
:2032600068E0FEA3E0FF4E70030234D890005A75F00078EB79137A00120956AD82AE83AF7F
:20328000F0ED4E60030234D890006AE0FFBFFF02800302335190006BE0FFBF0202800302CE
:2032A000335190006CE0FEA3E0FF4E600302335190006EE0FEA3E0FF4E60030233519000D2
:2032C00070E0FEA3E0FF4E6003023351900072E0FEA3E0FF4E707A900074E0707490007580
:2032E000E0FFBF016C900076E0FFBFFF647410C0E0E4C0E0745AC0E07400C0E0E4C0E0907E
:20330000006A75F000788B79787A00120956E58124FBF581900E52E0242C2452FEE4340058
:20332000FF74042EFEE43FFF7D007410C0E0E4C0E0C006C007C00590005A75F000788B7986
:20334000787A00120956E58124FBF5817F600233EC90006A75F00078EB79137A00120956D6
:20336000AF82AD83ACF0900C45E0FAA3E0FBA3E0FEC002C003C0068F828D838CF012719497
:2033800015811581158160030234D87410C0E0E4C0E0745AC0E07400C0E0E4C0E090006A52
:2033A00075F000788B79787A00120956E58124FBF581900E52E0242C2452FDE43400FE74B1
:2033C000042DFDE43EFE7C007410C0E0E4C0E0C005C006C00490005A75F000788B79787A6F
:2033E00000120956E58124FBF5817F60900E52E4F09000527460F0900053E4F0900054F08D
:20340000A3F0900056F09000577428F0900058743AF090005974FFF090007A7488F0900078
:203420007BE4F090007EEFF0900C45E0FDA3E0FEA3E0FF0DBD00010E7410C0E0E4C0E0C04E
:2034400005C006C00790008275F000788B79787A00120956E58124FBF581900E52E0244055
:203460002452FEE43400FF7D007402C0E08E828F838DF07897792E7A001209561581900EBA
:2034800052E024282452FEE43400FF8E828F83A3A3E4F0A3F0900E52E024282452FEE434AC
:2034A00000FF74022EFEE43FFFC007C0067801798D7A01120956AC82AD83D006D007ECF466
:2034C000FCEDF4FD8E828F83ECF0EDA3F09000E47450F0E4A3F080079000E4E4F0A3F0157E
:2034E0008115811581020968AD82AE83AFF0900E52E4F09000527460F0900053E4F09000FC
:2035000054F0A3F0900058743AF090005974FFF0E58124FBF8E6084660030235A0C005C092
:2035200006C00790006A74FFF090006B7402F090006CE4F0A3F090006EF0A3F0900070F02C
:20354000A3F0900072F0A3F0900074F090007504F090007674FFF0E58124F5F88602088670
:2035600003088604740D2AFDE43BFE8C078D828E838FF012793A900077F0740E2AFAE43B3E
:20358000FB8A828B838CF012793AFAA312793AFB900078EAF0EBA3F0D007D006D005803BDB
:2035A000E58124FBF88602088603088604C007C006C0057410C0E0E4C0E0C002C003C004A0
:2035C00090006A75F000788B79787A00120956E58124FBF581D005D006D007C005C006C0E5
:2035E00007900E52E024282452F582E43400F5837487F0900E52E024282452FBE43400FC9F
:203600008B828C83A3E4F0900E52E0242C2452FBE43400FC8B828C83E4F0A3F0A3F0A3F0C9
:20362000E58124F5F88602088603088604900E52E0242C2452FEE43400FF74042EFEE43FF6
:20364000FF7D00C007C006C0057410C0E0E4C0E0C002C003C0048E828F838DF0788B797818
:203660007A00120956E58124FBF581D005D006D007900056E4F0E58124F5F8868208868398
:203680000886F078EB79137A00120956AD82AE83ED4ED007D006D005600302377CED4E6002
:2036A000247410C0E0E4C0E0C005C006C00790005A75F000788B79787A00120956E5812434
:2036C000FBF5818020746AC0E07400C0E0E4C0E090005A75F000782179187A00120956154A
:2036E000811581158190005AE0FEA3E0FF4E705790005CE0FEA3E0FF4E704C90005EE0FE9C
:20370000A3E0FF4E7041900060E0FEA3E0FF4E7036900062E0FEA3E0FF4E702B900064E0D5
:20372000FEA3E0FF4E7020900066E0FEA3E0FF4E7015900068E0FEA3E0FF4E700A9000E46E
:20374000E4F0A3F002380B9000577428F0900E52E024402452FEE43400FF7D007401C0E0F9
:203760008E828F838DF07897792E7A0012095615819000E47450F0E4A3F0804090005AE446
:20378000F0A3F090005CF0A3F090005EF0A3F0900060F0A3F0900062F0A3F0900064F0A357
:2037A000F0900066F0A3F0900068F0A3F09000577418F09000E47440F0E4A3F0900E52E063
:2037C00024282452FEE43400FF8E828F83A3A3E4F0A3F0900E52E024282452FEE43400FF9C
:2037E00074022EFEE43FFFC007C0067801798D7A01120956AC82AD83D006D007ECF4FCED39
:20380000F4FD8E828F83ECF0EDA3F0020968E581240FF58124FAF87600900E52E0FE242C0D
:203820002452FCE43400FD8C828D83E0FBE58124FBF874805BF68C828D83E0FAE58124FCC8
:20384000F874405AF68C828D83E0FCE58124FDF874205CF6900059E0FCBCFF028003023DC9
:20386000A574282E2452FCE43400FD0CBC00010D8C828D83E06003023DA5742C2E2452FCF7
:20388000E43400FD8C828D83A3A3A3A3E0FDBDFF03023DA5E58124FCF8E6600B90006AE040
:2038A000FCBCFF03023DA5900C257414F0900C26E4F0A3F0A3F0742C2EFC8E027D00742CFE
:2038C0002AFAE43DFD900C25E58124F2F8E0F6E58124F2F886037F00EB2AFAEF3DFD900057
:2038E000E4E0FBA3E0FFC3EA9BED9F506DE58124F2F8E62C2452FBE43400FF0BBB00010F12
:203900008B828F83E07003023DA5E58124F2F8E62C2452F582E43400F583E0FFBF021BE5AE
:203920008124F2F8E62C2452FBE43400FF7A00900C26EBF0EFA3F0EAA3F0900C25E0FF2C7C
:203940002452FAE43400FB8A828B83A3E0C40354F8FB900C252FF00238BA742C2E2452FE23
:20396000E43400FF74042EFEE43FFF7C008E828F838CF078EB79137A00120956AC82AE8317
:20398000AFF0900C45ECF0EEA3F0EFA3F0EC4E6003023DA5900E52E0242C2452FEE434009B
:2039A000FF74042EFEE43FFF7C008E828F838CF0788E79D97A02120956AC82AE83AFF09055
:2039C0000C3FECF0EEA3F0EFA3F08C828E838FF078A979D87A02120956AC82AE83AFF0A81A
:2039E000811818A60408A60608A607900C3FE0F5F0A3E045F07003023DA5900C26E0FAA315
:203A0000E0FBA3E0FD900C26E0F5F0A3E045F0603EA8811818860408860608860774022AC2
:203A2000FAE43BFB7408C0E0E4C0E0C004C006C0078A828B838DF0781079757A0012095689
:203A4000AE82AF83E58124FBF58124FAF8A606900C3FE0FDA3E0FEA3E0FF74222DFDE43EAA
:203A6000FE8D828E838FF012793AFC6003023BB7900C26E0FFA3E0FEA3E0FD900C26E0F558
:203A8000F0A3E045F07003023DA574022FFFE43EFEA881181886040886030886027408C023
:203AA000E0E4C0E0C007C006C0058C828B838AF0788B79787A00120956E58124FBF58124BC
:203AC000FCF8E67003023B76900C3FE0FFA3E0FEA3E0FD74222FFFE43EFE8F828E838DF0A8
:203AE00074011272D3900C3FE0FFA3E0FEA3E0FD74202FFFE43EFE8F828E838DF0E4127256
:203B0000D390021EE0FFA3E0FEA3E0FDA3E0FC74E8C0E07403C0E0E4C0E0C0E08F828E836A
:203B20008DF0EC1276C8AF82AE83ADF0FCE58124FCF581900C3F24F3F8E0F6A3E008F6A3F1
:203B4000E008F6E58124F3F8741026F6E40836F6C007C006C005C004E58124EFF8868208C3
:203B600086830886F078A079C87A02120956E58124FCF581801D900C3FE0FFA3E0FEA3E021
:203B8000FD74222FFFE43EFE8F828E838DF074021272D3900C3FE0FFA3E0FEA3E0FD742188
:203BA0002FFFE43EFE8F828E838DF0E58124FBF8E61272D3023DA5E58124FDF8E6701EE5A2
:203BC0008124FAF8E66016BC01028003023DA58D828E838FF074021272D3023DA5E58124F2
:203BE000FDF8E6702BE58124FDF8E67014900C26E0F5F0A3E045F06008E58124FAF8E660FD
:203C00000F900C26E0F5F0A3E045F06003023D2D900C26E0FDA3E0FEA3E0FF900C26E0F54E
:203C2000F0A3E045F0603574022DFDE43EFEA881181886020886030886047408C0E0E4C0C3
:203C4000E0C005C006C0078A828B838CF0788B79787A00120956E58124FBF581E58124FC3C
:203C6000F8E67003023CFC900C3FE0FDA3E0FEA3E0FF74222DFDE43EFE8D828E838FF0740B
:203C8000011272D390021EE0FCA3E0FDA3E0FEA3E0FF74E8C0E07403C0E0E4C0E0C0E08CFA
:203CA000828D838EF0EF1276C8C8E58124F2C8A68208A68308A6F008F6E58124FCF5819028
:203CC0000C3FE0FAA3E0FBA3E0FF74102AFAE43BFBE58124F6F8E6C0E008E6C0E008E6C0C3
:203CE000E008E6C0E08A828B838FF078A079C87A02120956E58124FCF5818031900C26E028
:203D0000F5F0A3E045F06025E58124FAF8E6601D900C3FE0FDA3E0FEA3E0FF74222DFDE443
:203D20003EFE8D828E838FF074021272D3900C3FE0FDA3E0FEA3E0FF74212DFDE43EFE8DB4
:203D4000828E838FF012793A603AE58124FBF8E6703290005AF5F0789F79B77A01120956EB
:203D6000AD82AE83AFF0900C42EDF0EEA3F0EFA3F0ED4E600F8D828E838FF0788979B67A93
:203D800001120956900C3FE0FDA3E0FEA3E0FF74212DFDE43EFE8D828E838FF0E58124FBF3
:203DA000F8E61272D39000E4E4F0A3F0E58124F1F5810209689000527460F0900053E4F032
:203DC000900054F0A3F0900058743AF090005974FFF090006AF07402A3F090006CE4F0A344
:203DE000F090006EF0A3F0900070F0A3F0900072F0A3F0900074F0A3F0900076F0A3F090AA
:203E00000078F07402A3F0746AC0E07400C0E0E4C0E090005A75F000782179187A0012090D
:203E200056158115811581900E52E024282452F582E43400F5837485F0900E52E0242824A8
:203E400052FEE43400FF8E828F83A3E4F0900056F090005AE0FEA3E0FF4E706790005CE051
:203E6000FEA3E0FF4E705C90005EE0FEA3E0FF4E7051900060E0FEA3E0FF4E704690006205
:203E8000E0FEA3E0FF4E703B900064E0FEA3E0FF4E7030900066E0FEA3E0FF4E70259000BE
:203EA00068E0FEA3E0FF4E701A9000577408F0900E52E0FF7E009000E474302FF0E43EA3C6
:203EC000F0803C900E52E0FF7E009000E474402FF0E43EA3F09000577418F0900E52E02496
:203EE000302452FEE43400FF7D007401C0E08E828F838DF07897792E7A001209561581900F
:203F00000E52E024282452FEE43400FF8E828F83A3A3E4F0A3F0900E52E024282452FEE447
:203F20003400FF74022EFEE43FFFC007C0067801798D7A01120956AC82AD83D006D007EC9B
:203F4000F4FCEDF4FD8E828F83ECF0EDA3F0020968E581240FF581900059E0FFBFFF02808B
:203F600003024C4E90005AE0FFBFFE028003024C4E90005BE0FFBF80028003024C4E900E33
:203F800052E0FF24282452FDE43400FE0DBD00010E8D828E83E06003024C4E742C2F2452FE
:203FA000FDE43400FE8D828E83E06012742C2F2452F582E43400F583E0FF900219F0900E18
:203FC00052E0FF242C2452FDE43400FE8D828E83A3A3A3A3E0FBA3E0FCA3E0FDA3E0FEEBE5
:203FE0004C4D4E70030240AB90021AE58124F2F8E0F6A3E008F6A3E008F6A3E008F6742C61
:204000002F2452FAE43400FF8A828F83A3A3A3A3E0FAA3E0FDA3E0FEA3E08A828D838EF048
:2040200078FD79987A01120956AC82AD83AEF0FFE58124F2F8E6B5041108E6B5050C08E64D
:20404000B5060708E6B507028061900E52E0242C2452FEE43400FF8E828F83A3A3A3A3E0D8
:20406000FCA3E0FDA3E0FEA3E08C828D838EF078FD79987A01120956AC82AD83AEF0FF9027
:20408000021AECF0EDA3F0EEA3F0EFA3F07898791C7A00120956AC82AD83AEF0FF90021E6A
:2040A000ECF0EDA3F0EEA3F0EFA3F0900E52E0FF242C2452FDE43400FE74082DF582E43EB7
:2040C000F583E0FBA3E0FCA3E0FDA3E0FEEB4C4D4E6041742C2F2452FEE43400FF74082E96
:2040E000F582E43FF583E0FCA3E0FDA3E0FEA3E08C828D838EF078FD79987A01120956AC94
:2041000082AD83AEF0FF900222ECF0EDA3F0EEA3F0EFA3F0900C25740CF0900E52E0FFFD40
:204120007E00742C2DFDE43EFE900C25E0FC7B002DFDEB3EFE9000E4E0FAA3E0FBC3ED9A98
:20414000EE9B4003024B0D742C2F2C2452FDE43400FE0DBD00010E8D828E83E07003024C1B
:204160004E742C2F2C2452F582E43400F583E0FEBE0102800FBE030302436CBE05030243CB
:2041800019024AE6742C2F2C2452FDE43400FE7B00900C26EDF0EEA3F0EBA3F090005A75D8
:2041A000F000788E79D97A02120956AB82AD83AEF0900C3FEBF0EDA3F0EEA3F0EB4D704927
:2041C000900C26E0FFA3E0FEA3E074022FFFE43EFE7D007402C0E014C0E0C007C006C005DD
:2041E00090005A75F00078F579D67A02120956AF82AE83ADF0E58124FBF581900C3FEFF013
:20420000EEA3F0EDA3F0024AE68B828D838EF078A979D87A02120956AB82AD83AEF0A8814D
:204220001818A60308A60508A606900C3FE0FAA3E0FDA3E0FE74222AFBE43DFD8B828D8392
:204240008EF012793A700B8B828D838EF074021272D3A88118188603088607088604900C93
:2042600026E0FAA3E0FDA3E0FE74022AFAE43DFD7408C0E0E4C0E0C003C007C0048A828DFE
:20428000838EF0781079757A00120956AD82AE83E58124FBF581ED4E605F900C26E0FBA327
:2042A000E0FDA3E0FE74022BFBE43DFF8E04A881181886020886050886067408C0E0E4C08A
:2042C000E0C003C007C0048A828D838EF0788B79787A00120956E58124FBF581900C3FE081
:2042E000FBA3E0FDA3E0FE74222BFBE43DFD8B828D838EF074021272D3900C3FE0FBA3E047
:20430000FDA3E0FE74212BFBE43DFD8B828D838EF074011272D3024AE6742C2F2C2452FD3F
:20432000E43400FE7B0074042DFDE43EFE8D828E838BF012793AFDA312793AFEA312793AFF
:20434000FBA312793A8D828E838BF078FD79987A01120956AA82AB83ADF0FE900215EAF077
:20436000EBA3F0EDA3F0EEA3F0024AE6742C2F2C2452FEE43400FF7D00900C29EEF0EFA354
:20438000F0EDA3F074042EFEE43FFF8E828F838DF012793AFEA312793AFFA312793AFDA316
:2043A00012793A8E828F838DF078FD79987A01120956C8E58124F2C8A68208A68308A6F024
:2043C00008F6900C29E0FAA3E0FBA3E0FF74082AFAE43BFB8A828B838FF012793AFAA31279
:2043E000793AFBA312793AFFA312793A8A828B838FF078FD79987A01120956AC82AD83AE29
:20440000F0FFE58124F2F8C3E69C08E69D08E69E08E69F5003024AE6900C29E0FDA3E0FEA8
:20442000A3E0FF74102DFAE43EFB8F048A828B838CF012793AFABAFE1774112DFDE43EFEAC
:204440008D828E838FF012793AFDBD8003024AE6900C29E0FDA3E0FEA3E0FF74032DFAE462
:204460003EFB8F048A828B838CF012793AFA20E70302470D74022DFAE43EFB8F048A828BD7
:20448000838CF012793AFA74102DFDE43EFEC0028D828E838FF078AF790F7A00120956ADE8
:2044A00082AE83AFF01581900C3CEDF0EEA3F0EFA3F0ED4E600302460A900C29E0FFA3E045
:2044C000FEA3E0FD74042FFAE43EFB8D048A828B838CF0E58124F6F812793AF6A312793ADE
:2044E00008F6A312793A08F6A312793A08F6E58124F6F8E6084608460846700302470DE5FC
:204500008124F6F8B6FF0F08B6FF0B08B6FF0708B6FF030245AFE58124F6F8868208868371
:204520000886F008E678FD79987A01120956C8E58124F6C8A68208A68308A6F008F6900CFC
:2045400029E0FFA3E0FEA3E0FD74022FFAE43EFB8D048A828B838CF0E58124FDF812793A2B
:20456000F674102FFAE43EFB8D04E58124F6F8E6C0E008E6C0E008E6C0E008E6C0E0E581DC
:2045800024F9F8E6C0E08A828B838CF0784D790E7A00120956AA82AB83ACF0E58124FBF543
:2045A00081900C3CEAF0EBA3F0ECA3F002470D74022FFAE43EFB8D048A828B838CF0E5812C
:2045C00024FDF812793AF674102FFAE43EFB8D04E4C0E0C0E0C0E0C0E0E58124F9F8E6C027
:2045E000E08A828B838CF0784D790E7A00120956AA82AB83ACF0E58124FBF581900C3CEA5B
:20460000F0EBA3F0ECA3F002470D900C29E0FAA3E0FBA3E0FC74042AFAE43BFB8A828B83EB
:204620008CF0E58124F6F812793AF6A312793A08F6A312793A08F6A312793A08F6E581240F
:20464000F6F8B6FF0E08B6FF0A08B6FF0608B6FF028026E58124F6F8B6003308B6002F0864
:20466000B6002B08B600278D828E838FF07898790F7A0012095602470D741A2DFDE43EFE24
:204680008D828E838FF074011272D302470DE58124F6F886820886830886F008E678FD796E
:2046A000987A01120956C8E58124F6C8A68208A68308A6F008F6900C3CE0FAA3E0FBA3E0BE
:2046C000FF74122AFAE43BFBE58124F6F8E6C0E008E6C0E008E6C0E008E6C0E08A828B8355
:2046E0008FF078A079C87A02120956E58124FCF581900C3CE0FDA3E0FEA3E0FF741A2DFD89
:20470000E43EFE8D828E838FF0E41272D3900C29E58124FAF8E0F6A3E008F6A3E008F6E5A1
:204720008124FAF8740326FAE40836FB0886048A828B838CF012793AFA20E603024AE6E527
:204740008124FAF8740426FAE40836FB0886048A828B838CF012793AFAA312793AFBA3120E
:20476000793AFCA312793AFFEA4B4C4F7003024AE6E58124FAF8740226FDE40836FE0886EB
:20478000078D828E838FF012793AFDBD40028003024AE6E58124FAF8741026FDE40836FEBA
:2047A0000886077410C0E0E4C0E0C005C006C007900C2C75F000788B79787A00120956E579
:2047C0008124FBF5817447C0E07400C0E0E4C0E0900C2C75F00078EB791A7A0012095615AD
:2047E0008115811581900C2C75F00078EB79137A00120956AD82AE83AFF0900C45EDF0EE5A
:20480000A3F0EFA3F0ED4E7003024A1574122DFAE43EFB8F048A828B838CF012793AFABA08
:2048200001028003024A15900C29E0FAA3E0FBA3E0FC74042AFAE43BFB8A828B838CF0E5C4
:204840008124F6F812793AF6A312793A08F6A312793A08F6A312793A08F6E58124F6F8B6AA
:20486000FF0F08B6FF0B08B6FF0708B6FF03024A00E58124F6F886820886830886F008E695
:2048800078FD79987A01120956AF82AE83ADF0FCC374209F741C9EE49DE49C5003024927C1
:2048A000900C29E0FAA3E0FBA3E0FC74042AFAE43BFB8A828B838CF012793AFFA312793AE4
:2048C000FEA312793AFDA312793A8F828E838DF078FD79987A01120956C8E58124F6C8A646
:2048E0008208A68308A6F008F6900C45E0FAA3E0FBA3E0FC74142AFAE43BFB8A828B838C45
:20490000F078B779CA7A02120956AF82AE83ADF0FCE58124F6F8C3EF96EE0896ED0896EC8A
:20492000089640030249AD900C29E0FAA3E0FBA3E0FC74042AFAE43BFB8A828B838CF012A4
:20494000793AFFA312793AFEA312793AFDA312793A8F828E838DF078FD79987A0112095661
:20496000C8E58124F6C8A68208A68308A6F008F6900C45E0FAA3E0FBA3E0FC74142AFAE4EA
:204980003BFBE58124F6F8E6C0E008E6C0E008E6C0E008E6C0E08A828B838CF078A079C84A
:2049A0007A02120956E58124FCF5818034900C45E0FAA3E0FBA3E0FC74142AFAE43BFB7468
:2049C00020C0E0741CC0E0E4C0E0C0E08A828B838CF078A079C87A02120956E58124FCF56C
:2049E00081900C45E0FAA3E0FBA3E0FC74132AFAE43BFB8A828B838CF0E41272D3024AE6B6
:204A000074132DFDE43EFE8D828E838FF074011272D3024AE6900C29E0FDA3E0FEA3E0FF83
:204A200074042DFDE43EFE8D828E838FF012793AFDA312793AFEA312793AFFA312793A8D91
:204A4000828E838FF078FD79987A01120956AC82AD83AEF0FFBCFF2DBDFF2ABEFF27BFFF67
:204A6000247401C0E0E4C0E0C0E0C0E0C0E0900C2C75F00078F679107A00120956E5812400
:204A8000FBF5818061900C29E0FDA3E0FEA3E0FF74042DFDE43EFE8D828E838FF012793AF9
:204AA000FDA312793AFEA312793AFFA312793A8D828E838FF078FD79987A01120956AC8285
:204AC000AD83AEF0FF7401C0E0C004C005C006C007900C2C75F00078F679107A00120956CF
:204AE000E58124FBF581900E52E0242CFF900C25E0FE2F2452FDE43400FF8D828F83A3E0A0
:204B0000C40354F8FF900C252EF002411A90005A75F000789F79B77A01120956AD82AE8365
:204B2000AFF0900C42EDF0EEA3F0EFA3F0900E52E0242C2452FBE43400FC8B828C83A3A311
:204B4000E0FBA3E0FC4B7003024C3B900C3FE0FAA3E0FBA3E0FC900C3FE0F5F0A3E045F0AA
:204B6000601274212AFAE43BFB8A828B838CF074011272D3ED4E704D900E52E0242C245200
:204B8000FBE43400FC8B828C83A3A3E0FBA3E0FC8B828C8378E479987A01120956AB82ACFC
:204BA000837F007E00C003C004C007C00690005A75F00078B679B47A01120956E58124FC45
:204BC000F581024C4E900E52E0242C2452FBE43400FC8B828C83A3A3E0FBA3E0FC8B828CC9
:204BE0008378E479987A01120956AB82AC83E58124F6F8A60308A604087600087600900C12
:204C000042E0FAA3E0FBA3E0FC74132AFAE43BFBE58124F6F8E6C0E008E6C0E008E6C0E09C
:204C200008E6C0E08A828B838CF078A079C87A02120956E58124FCF5818013ED4E600F8D44
:204C4000828E838FF0788979B67A011209569000E4E4F0A3F0E58124F1F581020968900F48
:204C60002A75F000785179F67A01120956900F3275F000785179F67A01120956900F3A75D9
:204C8000F000785179F67A01120956020968AE82AF83900F4BE0FCA3E0FD900F4BEE4CF0D1
:204CA000EF4DA3F0900F48E0FDA3E0FEA3E0FF900F48E0F5F0A3E045F0600F8D828E838FDC
:204CC000F07852799B7A02120956020968C082C083C0F0A8811818740926FAE40836FB0856
:204CE00086048A828B838CF012793AFEA312793AFFE58124F9F8E6420608E642078A828BF3
:204D0000838CF0EE1272D3A3EF1272D3A8811818740626FDE40836FE0886078D828E838F0C
:204D2000F012793AFDA312793AFEA312793AFFED4E600F8D828E838FF07852799B7A02123F
:204D40000956158115811581020968AF82747F5F75F00DA42460FE740C35F0FF7D00740609
:204D60002EFEE43FFF8E828F838DF0E58124FBF8E61272D3A308E61272D3A308E61272D3BC
:204D8000020968AFF0AE83E582900F48F0EEA3F0EFA3F0020968058105817402559AFFAEFE
:204DA0009A74FD5EF59A900F4BE0FDA3E0FEA88118A60508A606900F4BE4F0A3F0EF429AF7
:204DC000A8811886820886831581158102096805810581AF82747F5F75F00DA42460FE743F
:204DE0000C35F0FF7D007402559AFCAB9A74FD5BF59A74092EFEE43FFF8E828F838DF0A8F3
:204E0000811812793AF6A312793A08F68E828F838DF0E41272D3A31272D3EC429AA88118FB
:204E2000868208868315811581020968AF82E58124FBF886050886068E04900C48ECF0900B
:204E40000C49EDF0900C4AE58124FDF8E6F0900C4BEFF0E58124F9F8088607900C4CEFF048
:204E6000E58124F9F886067F00900C4DEEF0900C4E7420F0900C4F7412F043D601E5D6FF42
:204E800030E0FA43D701E5D6FF20E0FA75D1FE020968AE82AF83900C48E58124FCF8E6F0E8
:204EA000900C49E58124FDF8E6F08F05900C4AEDF0900C4BEEF0E58124FAF8088607900CEF
:204EC0004CEFF0E58124FAF886067F00900C4DEEF0900C4E7420F0900C4F7442F043D60140
:204EE000E5D6FF30E0FA43D701E5D6FF20E0FA75D1FE020968E5812407F581C8E58124FC13
:204F0000C8A68208A68308A6F0E58124F6F88606E4CE25E0CE33FFEE2420FEEF3462FFA8BB
:204F20008118A60608A607E58124F4F8C3740896E408965044E58124FCFDFC2402F9E77021
:204F4000388D04EC04F987048D018705E58124F4F8E6C0E008E6C0E0E58124FDF8E6C0E06B
:204F600008E6C0E0C0048D82782C794E7A00120956E58124FBF581806AE58124FCF886038E
:204F8000088604088605E58124F4F8E58124FAF9E6F70809E6F7E58124FAF8860208860795
:204FA000E58124FAF816B6FF020816EA4F6027A881188682088683E0FF8B828C838DF012E6
:204FC00072D3A3AB82AC83E58124FCF8A60308A60408A60580C0E58124FCF8A60308A604E8
:204FE00008A605E58124F9F581020968E5812404F581AF82E4CF25E0CF33FEEF2420FFEE85
:205000003462FEA88118A60708A606E58124F5F8C3740896E408965042E58124F7FDFC245C
:2050200002F9E770368D04EC04F987048D018705E58124F5F8E6C0E008E6C0E0C004C005B5
:20504000E58124FBF886820886837892794E7A00120956E58124FCF581806BE58124F7F89E
:205060008603088604088605E58124F5F8E58124FDF9E6F70809E6F7E58124FDF8860208B1
:205080008607E58124FDF816B6FF020816EA4F60288B828C838DF012793AFFA3AB82AC83FC
:2050A000E58124F7F8A60308A60408A605A881188682088683EFF080BFE58124F7F8A603CF
:2050C00008A60408A605E58124FCF5810209680581058105817F00EF75F00DA42460FD74F1
:2050E0000C35F0FE74022DFBE43EFC8B828C83E0FA20E2030251808D828E83A3A3A3A881C5
:205100001818E0F6A3E008F6A3E008F68B828C83E4F08F82C00778DC79F47A01120956D042
:2051200007A8811818E608466056C007E58124FDF8740826FBE40836FC0886078B828C8373
:205140008FF012793AFDA312793AFE5305FE8B828C838FF0ED1272D3A3EE1272D3E5812401
:20516000FDF886820886830886F012793A1818F6A312793A08F6A312793A08F6D00780A1F4
:205180000FBF040050030250D775820078E279587A0012095615811581158102096890628D
:2051A0000F7403F090620FE0FF30E7F8D29043FE017F00EF75F00DA42460FD740C35F0FE3E
:2051C0008D828E83A3A3E4F074062DF582E43EF583E4F0A3F0A3F00FBF040040D678CF793B
:2051E000507A00120956906207E4F0906209F0900F4275F000786479E17A02120956439A76
:2052000002020968C082E5812407F58124F9F8747F5675F00DA42460FD740C35F0FC7E00BC
:2052200074022DFAE43CFB8E078A828B838FF012793AFA20E20302542DC005C004C006E50D
:205240008124F0F8860208860308860774032AFCE43BFD8F068C828D838EF012793AFCA3C5
:2052600012793AFDA312793AEC4DD006D004D0057050E58124F9F8E6547F60028044C0056D
:20528000C004C00674082AFCE43BFD8F068C828D838EF012793AFCA312793AECD006D004D6
:2052A000D00530E31A7401C0E0E4C0E08D828C838EF078CD794C7A00120956158115810294
:2052C000542DC002C003C007E58124FDF87402559AF6AF9A74FD5FF59AE58124FAF874038C
:2052E0002DF6E43C08F608A606D007D003D002E58124FDF886820886830886F0E58124FAA3
:20530000F912793AF7A312793A09F7A312793A09F7E58124FAF8E608466028C002C003C08B
:2053200007E58124F7F88602088603088607E58124FAF8A60208A60308A607D007D003D03B
:205340000280ACE58124FDF886820886830886F0EA1272D3A3EB1272D3A3EF1272D3E58194
:2053600024F3F8E608466076C005C004C006E58124F0F88602088603088607E58124F7F82C
:2053800074082AF6E43B08F608A607E58124F7F886820886830886F012793AFDA312793A65
:2053A000FE430501E58124F7F886820886830886F0ED1272D3A3EE1272D38A828B838FF0D1
:2053C000E58124F0F812793AF6A312793A08F6A312793A08F6D006D004D00502535EE5813C
:2053E00024F9F890620E747F56F00DBD00010C8D828C838EF012793AFF547F6002801390D0
:205400006211E0FE30E021788979697A001209568016906214E0FE30E00E53077F8F827842
:2054200071796F7A00120956A881E6429AE58124F8F581020968E5812407F581AC82747FAA
:205440005C75F00DA42460FD740C35F0FEA8811818A60508A606087600A88118187402268B
:20546000FAE40836FB0886078A828B838FF012793AFA20E203025635E58124FDF87402554C
:205480009AF6AB9A74FD5BF59AEC547F6002806EE58124F4F8860208860308860774032A08
:2054A000FAE43BFB8A828B838FF012793AFAA312793AFBA312793AFFEA4B703790620EE4F6
:2054C000F09062117448F07401C0E0E4C0E0E58124FCF886820886830886F078CD794C7AFB
:2054E0000012095615811581E58124FDF8E6429A02563590620EE4F09062117440F0A8819D
:205500001818740326FAE40836FB0886078A828B838FF012793AFCA312793AFDA312793AEB
:20552000FEEC4D60088C028D038E0780E08A828B838FF0E58124F4F8E61272D3A308E612CA
:2055400072D3A308E61272D3E58124F4F8E608466069E58124F4F88605088606088607E59C
:205560008124FAF874082DF6E43E08F608A607E58124FAF886820886830886F012793AFB4D
:20558000A312793AFC430341E58124FAF886820886830886F0EB1272D3A3EC1272D38D82D6
:2055A0008E838FF0E58124F4F812793AF6A312793A08F6A312793A08F6808DA88118187484
:2055C0000126FDE40836FE0886078D828E838FF012793AFC90620E747F5CF08D828E838FA4
:2055E000F012793AFF547F601253077F8F827828796A7A00120956AF82800D78B379667A18
:2056000000120956AE828E07E58124FDF8E6429AEF30E1217401C0E0E4C0E0E58124FCF8DB
:2056200086820886830886F078CD794C7A0012095615811581E58124F9F581020968906254
:2056400007E0FF74014FF0020968E582547FFE75F00DA42460FD740C35F0FF7C008EF005CB
:20566000F07401800225E0D5F0FBFE906207E04EF0740B2DFAE43FFB8C068A828B838EF07B
:2056800012793AFAA312793AC423CAC423541F6ACA541FCA6ACAFB906210EAF074022DFDBC
:2056A000E43FFF8D828F838CF012793AFD530503BD020B906212E0FF74404FF080099062F3
:2056C00012E0FF74BF5FF0020968E582547FFE75F00DA42460FD740C35F0FF7C008EF00572
:2056E000F07401800225E0D5F0FBFE906209E04EF0740B2DFAE43FFB8C068A828B838EF0F9
:2057000012793AFAA312793AC423CAC423541F6ACA541FCA6ACAFB906213EAF074022DFD38
:20572000E43FFF8D828F838CF012793AFD530503BD020B906215E0FF74404FF0800990626F
:2057400015E0FF74BF5FF0020968C082E5812404F58124FCF8747F56FEE58124FDF8A60690
:20576000EE75F00DA42460FC740C35F0FEA8811818A60408A606087600A881181886820864
:2057800086830886F0E41272D3A8811818740226FAE40836FD0886078A828D838FF012797E
:2057A0003AFE4306048A828D838FF0EE1272D3A8811818740326FDE40836FE0886078D82CD
:2057C0008E838FF0E41272D3A31272D3A31272D3A88118180426FDE40836FE0886078D82C6
:2057E0008E838FF0E58124FCF8E61272D3A8811818740926FDE40836FE0886078D828E8390
:205800008FF0E41272D3A31272D3A8811818740B26FDE40836FE088607E58124FDF8E6754A
:20582000F002A4249EF582747D35F0F583E493FBA3E493FC8D828E838FF0EB1272D3A3EC13
:205840001272D37402559AFFAE9A74FD5EF59AE58124FDF890620EE6F0E58124FDF8E670BD
:205860000FC007783E79567A00120956D0078033E58124FCF8E630E716E58124FCF8868241
:20588000C007784A79567A00120956D0078014E58124FCF88682C00778CA79567A00120967
:2058A00056D007EF429AE58124FBF581020968AF82747F5F75F00DA42460FD740C35F0FEC5
:2058C0007C0074022DFDE43EFE8D828E838CF074021272D38F82784A79577A001209560293
:2058E0000968AF82747F5F75F00DA42460FD740C35F0FE7C0074022DFDE43EFE8D828E831E
:205900008CF074011272D38F82784A79577A00120956020968AF82747F5F75F00DA4246021
:20592000FD740C35F0FE7C0074022DFDE43EFE8D828E838CF0E41272D38F82784A79577A97
:2059400000120956020968AF82747F5F75F00DA42460FD740C35F0FE7C0074022DFDE43E68
:20596000FE8D828E838CF074031272D38F82784A79577A00120956020968906207E0FF7472
:20598000FE5FF090621174C0F0020968AF82906210E4F0747F5FF5F005F07401800225E0F1
:2059A000D5F0FBF4FF906207E0FEEF5EF09062117408F0020968AF82906213E4F0747F5FE2
:2059C000F5F005F07401800225E0D5F0FBF4FF906209E0FEEF5EF09062147408F002096843
:2059E000AF82747F5FFD75F00DA42460FC740C35F0FE7B0074022CFCE43EFE8C828E838B0B
:205A0000F012793AFA5302FB8C828E838BF0EA1272D37402559AFEAC9A74FD5CF59A9062B5
:205A20000EEDF0ED700FC006787A79597A00120956D0068024EF30E7118F82C006788C79B5
:205A4000597A00120956D006800F8F82C00678B679597A00120956D006EE429A020968E5E3
:205A6000812406F581AF82747F5F75F00DA42460FE740C35F0FF7D007402559AFCAB9A74AF
:205A8000FD5BF59A74032EFEE43FFF8E828F838DF0E58124FBF812793AF6A312793A08F61D
:205AA000A312793A08F68E828F838DF0E41272D3A31272D3A31272D3EC429AE58124FBF86D
:205AC000E608466052E58124FBF8740826FDE40836FE0886078D828E838FF012793AFBA30D
:205AE00012793AFC5303FE8D828E838FF0EB1272D3A3EC1272D3E58124FBF8868208868334
:205B00000886F012793A1818F6A312793A08F6A312793A08F680A4E58124FAF581020968BF
:205B2000AF82747F5FFE90620EF0EE7018E58124FDF8E6604E900C5FE4F0906211E0FE7447
:205B4000214EF0803EEF30E71EE58124FDF8E6600B906211E0FF74104FF08027906211E005
:205B6000FF74EF5FF0801CE58124FDF8E6600B906214E0FF74204FF08009906214E0FF746E
:205B8000DF5FF0020968AF82747F5FFE24FB500280247402559AFEAD9A74FD5DF59AC00601
:205BA0007401C0E08F827820795B7A001209561581D006EE429A020968C082E5812408F5F6
:205BC0008124F8F8747F56FD75F00DA42460FC740C35F0FEA8811818A60408A6060876007C
:205BE000ED24FB5003025DBFC005E58124FDF8740226FAE40836FD0886078A828D838FF0FF
:205C000012793AFAD00520E203025DBF7402559AFFAA9A74FD5AF59AE58124F3F8E6084622
:205C2000602CA881181886820886830886F074011272D3C007C0E0E58124F6F8868278209D
:205C4000795B7A001209561581D007025DBCA881181886820886830886F0E41272D3C0070B
:205C6000C005C0E0E58124F5F886827820795B7A001209561581D005D007A8811818E581E8
:205C800024F9F9740326F7E4083609F70809E6F7E58124F9F886820886830886F012793A73
:205CA000FEA312793AFCA312793AFBEE4C7003025DA274082EFEE43CFC8E828C838BF0E52E
:205CC0008124FCF812793AF6A312793A08F6E58124FCF808E620E003025DA2C007E5812449
:205CE000FBF874FE56FA0886078E828C838BF0EA1272D3A3EF1272D3E58124F8F88682080C
:205D000086830886F012793AFAA312793AFEA312793AFF74082AFAE43EFE8A828E838FF014
:205D200012793AFAA312793AFEEAD00730E329C007C0057401C0E0E4C0E0E58124FAF8861A
:205D4000820886830886F078CD794C7A0012095615811581D005D007E58124F9F8868208DA
:205D600086830886F012793AFBA312793AFCA312793AFE8B828C838EF012793AFBA312798A
:205D80003AFCA312793AFEE58124F9F886820886830886F0EB1272D3A3EC1272D3A3EE128A
:205DA00072D3ED6017E58124F8F8747F56F582C0077871796F7A00120956D007EF429AE5F6
:205DC0008124F7F581020968020968E582547FFE75F00DA42460FD740C35F0FC7F00EE24CA
:205DE000FB500590000080108D828C838FF012793AFD7F008D828F83020968E58290620068
:205E0000F0020968AF8253077F7402559AFEAD9A74FD5DF59A90620EEFF0EF700A906211C3
:205E2000E0FF5307028009906211E0FD74015DFFEE429A7E008F828E830209680581058104
:205E4000AD82AE83AFF0A88118E4F608F6ED4E605B74082DFAE43EFB8F048A828B838CF04B
:205E600012793AFAA312793AFBEA54607004EB30E002803874062DFAE43EFB8F048A828B51
:205E8000838CF012793AFAA312793AFBA88118EA26F6EB0836F68D828E838FF012793AFD1A
:205EA000A312793AFEA312793AFF80A1A8811886820886831581158102096805810581AD42
:205EC00082AE83AFF0ED4E7003025F9574082DFAE43EFB8F048A828B838CF0A88118127917
:205EE0003AF6A312793A08F6C005C006C007E58124FCF8E58124F7F9E756FE09E70856FF3A
:205F0000E58124F5F8E6B5060E08E6B50709D007D006D005025F95E58124FCF874FE56FEEC
:205F20000886078A828B838CF0EE1272D3A3EF1272D34306808A828B838CF0EE1272D3A3C1
:205F4000EF1272D3EED007D006D00530E330C005C006C007E58124F2F886020886030886DB
:205F6000048A828B838CF012793AFF4307028A828B838CF0EF1272D3D007D006D0058D820A
:205F80008E838FF012793AFDA312793AFEA312793AFF025EC58D828E838FF01581158102F0
:205FA0000968E5812407F581C8E58124FCC8A68208A68308A6F07C00C004E58124FBF8742B
:205FC0000626FAE40836FB0886048A828B838CF012793AFFA312793AFEE58124F3F8C3EF05
:205FE00096EE0896D004500E8F028E03A88118A60208A603800EE58124F4F8A98119E6F76D
:206000000809E6F7C004E58124F3F8A9811919E6C397F608E60997F6E58124FBF874062626
:20602000FAE40836FB0886048A828B838CF012793AFEA312793AFFA8811818EEC396FEEF6A
:206040000896FF8A828B838CF0EE1272D3A3EF1272D3E58124FBF8740326FDE40836FE08A0
:2060600086078D828E838FF012793AFAA312793AFBA312793AFCC007C006C005C004E581F2
:2060800024FAF8E6C0E008E6C0E0E58124EFF8E6C0E08A828B838CF078F5794E7A00120980
:2060A00056158115811581D004D005D006D0078D828E838FF012793AFAA312793AFBA312FC
:2060C000793AFCA8811818E62AFA08E63BFB8D828E838FF0EA1272D3A3EB1272D3A3EC1224
:2060E00072D3D004E58124F4F8E60846605AE58124FCF8740826FDE40836FE0886078D8242
:206100008E838FF012793AFAA312793AFB5302EE8D828E838FF0EA1272D3A3EB1272D3EADB
:2061200030E303430402E58124FCF886820886830886F012793A1818F6A312793A08F6A3F7
:2061400012793A08F6025FB8E58124F3F8E66031E58124FCF8740826FDE40836FE088607A5
:206160008D828E838FF012793AFAA312793AFB4302108D828E838FF0EA1272D3A3EB127217
:20618000D3E58124FCF8740626FDE40836FE0886078D828E838FF012793AFEA312793AFF93
:2061A0004E602EE58124FCF8740826FAE40836FB0886058A828B838DF0E58124FAF812799B
:2061C0003AF6A312793A08F6E58124FAF8E630E25EC004E58124FBF8740826FFE40836FE55
:2061E0000886058F828E838DF012793AFBA312793AFA5303FE8F828E838DF0EB1272D3A373
:20620000EA1272D3EBD00430E303430402E58124FCF886820886830886F012793A1818F61F
:20622000A312793A08F6A312793A08F60262A9E58124F3F8E66072EE4F6027E58124FAF818
:20624000E620E11EE58124FAF8748046FE0886078A828B838DF0EE1272D3A3EF1272D343E8
:2062600004048A828B838DF012793AFEA312793AFF5306FE8A828B838DF0EE1272D3A3EF90
:206280001272D3EE30E303430402E58124FCF886820886830886F012793A1818F6A312792C
:2062A0003A08F6A312793A08F6E58124F6F8E675F00DA42460FE740C35F0FF8E828F83A3E1
:2062C000A3A3E58124FCF8E6F008E6A3F008E6A3F08C82E58124F9F581020968E581240717
:2062E000F58124FDFF7E007D40900C63E0FAA3E0FBA3E0FCC007C006C0057420C0E0E4C0CD
:20630000E07420C0E0E4C0E08A828B838CF078BB795E7A00120956AD82AE83AFF0E58124D1
:20632000F9F581A8811818A60508A60608A607900C63A8811818E6F008E6A3F008E6A3F051
:20634000A8811818E608466027A8811818740626FAE40836FB0886048A828B838CF0127966
:206360003AFEA312793AFFC3EE9408EF9400500675820102651AA8811818E58124FAF97495
:206380000326F7E4083609F70809E6F7E58124FAF886820886830886F012793AFDA31279CA
:2063A0003AFEA312793AFFC004C003C0027408C0E0E4C0E0C0E08D828E838FF078F5794EE2
:2063C0007A00120956158115811581D002D003D0048A828B838CF012793AFEA312793AFFD7
:2063E000EE24F8FEEF34FFFF8A828B838CF0EE1272D3A3EF1272D3A8811818740826FDE4D4
:206400000836FE0886078D828E838FF012793AFBA312793AFC5303FE8D828E838FF0EB12F8
:2064200072D3A3EC1272D3EB30E309E58124FDF8E64402F6E58124FAF88682088683088666
:20644000F012793AFDA312793AFEA312793AFF74062DFAE43EFB8F048A828B838CF012794B
:206460003A701274072DFDE43EFE8D828E838FF012793A603C906211E0FF74404FF0E58160
:2064800024FAF886820886830886F012793AFDA312793AFEA312793AFF8D828E838FF0120F
:2064A000793AFD30E7047F0280027F01900C5FEFF0E58124FAF886820886830886F0127916
:2064C0003AFDA312793AFEA312793AFF74082DFDE43EFEE58124FAF886820886830886F0DF
:2064E000ED1272D3A3EE1272D3A3EF1272D3A881181886820886830886F012793AFDA31220
:20650000793AFEA312793AFF900C63EDF0EEA3F0EFA3F0E58124FDF88682E58124F9F58104
:20652000020968E5812405F581A88118187600A8817600900C63E0FBA3E0FCA3E0FD9062AA
:2065400016E0FAA88118A602EB4C70067582010266AA74082BFAE43CFE8D078A828E838FAC
:20656000F0E58124FCF812793AF6A312793A08F6E58124FCF8E654607003026607C003C00F
:2065800004C005E58124F9F8748046FC0886058A828E838FF0EC1272D3A3ED1272D35304D1
:2065A000FE8A828E838FF0EC1272D3A3ED1272D3ECD005D004D00330E306A88118187602C5
:2065C000A8811886078F061FEE6006906220E080F48B828C838DF012793AFAA312793AFEC1
:2065E000A312793AFF900C63EAF0EEA3F0EFA3F0906211E0FF74484FF0900C5FE4F0A88183
:20660000181886820266AA8B828C838DF0C005C004C003783C795E7A00120956AE82AF8373
:20662000D003D004D005A88118E58124FCF9E6F7097700E58124FCF8C3EE96EF089650051A
:206640007582018065900C6BE0FEA3E0FFE58124FCF8C3E69E08E69F5004A8817601A88187
:20666000E6C0E0E58124FBF8E6C0E008E6C0E0E4C0E08B828C838DF078A2795F7A0012095F
:2066800056AF82E58124FCF581A8811818A607A881E66007900C5FE4F08009906211E0FFC1
:2066A00074404FF0A88118188682E58124FBF581020968E581240CF581900C6324F8F8E019
:2066C000F6A3E008F6A3E008F6900C6BE58124FBF8E0F6A3E008F6E58124FDF87600A881C9
:2066E00018187600906211E0FA20E10A900C5FE0FABA02028006758200026980E58124F88F
:20670000F8E608467005F582026980E58124F8F8740826FAE40836FB0886048A828B838C0B
:20672000F012793AFAA312793AFBEA20E606758200026980E58124F8F8E6084670030269E3
:206740002CE58124F8F8740626FAE40836FB0886048A828B838CF012793AFBA312793AFC90
:20676000E58124FBF8C3EB96EC0896500AA88118A60308A604800EE58124FBF8A98119E6A4
:20678000F70809E6F7E58124FBF8A98119E6C397F608E60997F6E58124F8F8740626FAE4A2
:2067A0000836FB0886048A828B838CF012793AFEA312793AFFA88118EEC396FEEF0896FF3C
:2067C0008A828B838CF0EE1272D3A3EF1272D3E58124F8F8E58124F5F9740326F7E408364D
:2067E00009F70809E6F7E58124F5F886820886830886F012793AFDA312793AFEA312793A0D
:20680000FFC004C003C002E58124FCF8E6C0E008E6C0E0C005C006C00775820078EC794F29
:206820007A00120956E58124FBF581D002D003D004E58124F5F886820886830886F0127960
:206840003AFDA312793AFEA312793AFFA88118E62DFD08E63EFEE58124F5F8868208868329
:206860000886F0ED1272D3A3EE1272D3A3EF1272D38A828B838CF012793AFAA312793AFBCD
:206880004A600302691FE58124F8F8740826FDE40836FE0886078D828E838FF012793AFD92
:2068A000A312793AFEED30E11AE58124FBF8E608466079E58124FDF87601E58124FBF8E479
:2068C000F608F6E58124F8F8740826FDE40836FE0886078D828E838FF012793AFBA3127969
:2068E0003AFC5303FE8D828E838FF0EB1272D3A3EC1272D3EB30E308A8811818E64402F6C6
:20690000E58124F8F886820886830886F012793A1818F6A312793A08F6A312793A08F6E5CA
:206920008124FBF8E608466003026734E58124FBF8E608466007E58124FDF87601900C637E
